:020000040000FA
:0400000007EF00F016
:0A0008004482D2ED0AF0F2EF0AF094
:1008000000010005001400002C50800B356E2C50A8
:100810002C24376E2BAE0FEF04F011EF04F012EF23
:1008200004F037803750D8B418EF04F01AEF04F012
:100830002FEF04F03728D8A420EF04F022EF04F0C3
:100840002AEF04F0000E296E000E2A6E000E2B6EA9
:10085000000E2C6E2B8E000E2C6E37EF04F0000E67
:10086000296E000E2A6E000E2B6E000E2C6E30507C
:10087000800B366E35503618D8B441EF04F043EF94
:1008800004F044EF04F0358C30503024366E2FAE37
:100890004CEF04F04EEF04F04FEF04F0368036508A
:1008A000D8B455EF04F057EF04F06CEF04F036289D
:1008B000D8A45DEF04F05FEF04F067EF04F0000EE2
:1008C0002D6E000E2E6E000E2F6E000E306E2F8ECF
:1008D000000E306E74EF04F0000E2D6E000E2E6EC2
:1008E000000E2F6E000E306E3750365CD8B07BEFA6
:1008F00004F07DEF04F0A4EF04F035AC82EF04F0D7
:1009000084EF04F086EF04F0800E351A37C038F01B
:1009100036C037F038C036F029C038F02DC029F085
:1009200038C02DF02AC038F02EC02AF038C02EF082
:100930002BC038F02FC02BF038C02FF02CC038F06F
:1009400030C02CF038C030F0000E386E375036C052
:1009500031F0326A315E000E325A32BEB9EF04F025
:10096000325009E11A0E315CD8A0B9EF04F0BBEFA8
:1009700004F0F2EF04F029502A102B102C10D8A408
:10098000C4EF04F0C7EF04F0010EC8EF04F0000E4E
:10099000386E000E296E000E2A6E000E2B6E000EB1
:1009A0002C6E36C037F0FBEF04F038A0DAEF04F01D
:1009B000DCEF04F0E2EF04F0D89038300109386E33
:1009C000E4EF04F0D890383229A0E9EF04F0EBEF1F
:1009D00004F0ECEF04F0388E2C342C322B322A3217
:1009E0002932372A3650375CD8A0F9EF04F0FBEFF4
:1009F00004F0D5EF04F035BC00EF05F002EF05F090
:100A000042EF05F03750D8A408EF05F00AEF05F0E3
:100A100014EF05F0000E296E000E2A6E000E2B6EEC
:100A2000000E2C6E63EF06F02D5029262E502A2240
:100A30002F502B2230502C222CA021EF05F023EF39
:100A400005F0CFEF05F038A028EF05F02AEF05F00C
:100A500030EF05F0D89038300109386E32EF05F0EC
:100A6000D890383229A037EF05F039EF05F03AEF8A
:100A700005F0388E2C342C322B322A322932372A88
:100A8000CFEF05F02D50295C2E502A582F502B58AF
:100A90002C50800A316E3050800A3158D8B053EF54
:100AA00005F055EF05F080EF05F029502D5C316E13
:100AB0002A502E58326E2B502F58336E2C503058EF
:100AC000346EFF0E3124296EFF0E32202A6EFF0E87
:100AD00033202B6EFF0E34202C6E800E351A386CAE
:100AE0003850D8A476EF05F078EF05F088EF05F0E0
:100AF000010E2926000E2A222B222C2288EF05F037
:100B00002D50295E2E502A5A2F502B5A30502C5AD5
:100B100029502A102B102C10D8A491EF05F093EF38
:100B200005F0C8EF05F03850D8A499EF05F09BEF19
:100B300005F0C8EF05F0000E296E000E2A6E000EBB
:100B40002B6E000E2C6E63EF06F0D89029362A36F5
:100B50002B362C3638AEAFEF05F0B1EF05F0B2EF23
:100B600005F0298038A0B7EF05F0B9EF05F0BDEF2B
:100B700005F0D8803836BFEF05F0D89038363750BA
:100B8000D8B4C5EF05F0C7EF05F0C8EF05F037069C
:100B90002BAECDEF05F0CFEF05F0A5EF05F0000E81
:100BA000366E38AED6EF05F0D8EF05F0F0EF05F071
:100BB00038C031F07F0E3116D8B4E1EF05F0E3EF25
:100BC00005F0E7EF05F0010E366EF0EF05F029A015
:100BD000ECEF05F0EEEF05F0F0EF05F0E3EF05F0D8
:100BE0003650D8B4F6EF05F0F8EF05F023EF06F035
:100BF000010E2926000E2A222B222C222CA003EFE4
:100C000006F005EF06F023EF06F029C031F02AC008
:100C100032F02BC033F02CC034F034343432333261
:100C20003232313231C029F032C02AF033C02BF0D9
:100C300034C02CF03728D8B420EF06F022EF06F0AD
:100C400023EF06F0372A3728D8B429EF06F02BEF28
:100C500006F033EF06F03750D8A431EF06F033EF4B
:100C600006F045EF06F0000E296E000E2A6E000E0B
:100C70002B6E000E2C6E3750D8A441EF06F043EFD8
:100C800006F045EF06F0000E356E37A04AEF06F08D
:100C90004CEF06F04FEF06F02B8E50EF06F02B9E38
:100CA000D89037302C6E35AE58EF06F05AEF06F07C
:100CB0005BEF06F02C8E29C029F02AC02AF02BC049
:100CC0002BF02CC02CF012001350800B206E135010
:100CD0001324276E12AE6FEF06F071EF06F072EF7D
:100CE00006F027802750D8B478EF06F07AEF06F0A8
:100CF0008FEF06F02728D8A480EF06F082EF06F0E9
:100D00008AEF06F0000E106E000E116E000E126ECD
:100D1000000E136E128E000E136E97EF06F0000E8B
:100D2000106E000E116E000E126E000E136E175034
:100D3000800B201A17501724286E16AEA2EF06F06B
:100D4000A4EF06F0A5EF06F028802850D8B4ABEF4A
:100D500006F0ADEF06F0C2EF06F02828D8A4B3EFF6
:100D600006F0B5EF06F0BDEF06F0000E146E000EB3
:100D7000156E000E166E000E176E168E000E176E94
:100D8000CAEF06F0000E146E000E156E000E166E01
:100D9000000E176E1450151016101710D8A4D3EFAC
:100DA00006F0D5EF06F0EDEF06F0000E106E000E27
:100DB000116E000E126E000E136E800E12127F0E58
:100DC00013122050131210C010F011C011F012C0F5
:100DD00012F013C013F030EF08F02750D8A4F3EF4F
:100DE00006F0F5EF06F0FFEF06F0000E106E000EB5
:100DF000116E000E126E000E136E30EF08F02850C8
:100E000027C018F0196A185E000E195A7F0E1824B0
:100E1000216E000E1920226E10C01CF011C01DF0B2
:100E200012C01EF013C01FF0000E106E000E116EE7
:100E3000000E126E000E136E000E236E000E246E56
:100E4000000E256E000E266E000E286E60EF07F075
:100E50002850D8B42EEF07F030EF07F047EF07F037
:100E6000D8901C361D361E361F36D89010361136D7
:100E70001236133626AE3FEF07F041EF07F042EF90
:100E800007F01080D89023362436253626361450A5
:100E90001C5C15501D5816501E5817501F58D8A0CE
:100EA00054EF07F056EF07F05FEF07F0268C145071
:100EB0001C5E15501D5A16501E5A17501F5A282ACC
:100EC000190E286466EF07F068EF07F028EF07F0C7
:100ED0001C501D101E101F10D8B471EF07F073EFD7
:100EE00007F08BEF07F023808BEF07F0D8901036D8
:100EF00011361236133626AE80EF07F082EF07F078
:100F000083EF07F01080D890233624362536263616
:100F10002106D8A0220612AE90EF07F092EF07F05C
:100F200076EF07F0000E286E26AE99EF07F09BEFE4
:100F300007F0BFEF07F0FF0E2314186EFF0E241406
:100F4000196EFF0E25141A6E7F0E26141B6E185094
:100F500019101A101B10D8B4B0EF07F0B2EF07F059
:100F6000B6EF07F0010E286EBFEF07F010A0BBEF41
:100F700007F0BDEF07F0BFEF07F0B2EF07F0285022
:100F8000D8B4C5EF07F0C7EF07F0EBEF07F0010E9D
:100F90001026000E11221222132213A0D2EF07F006
:100FA000D4EF07F0EBEF07F010C018F011C019F004
:100FB00012C01AF013C01BF01B341B321A32193244
:100FC000183218C010F019C011F01AC012F01BC06E
:100FD00013F0214A222A22BEF6EF07F0225008E140
:100FE0002128D8A0F6EF07F0F8EF07F003EF08F09C
:100FF000000E226E2168000E106E000E116E000EA3
:10100000126E000E136E22BE10EF08F0225006E1A1
:101010002104D8B00EEF08F010EF08F01EEF08F032
:10102000000E226E000E216E000E106E000E116E6C
:10103000000E126E000E136E000E206E21C027F0FF
:1010400027A025EF08F027EF08F02AEF08F0128E0E
:101050002BEF08F0129ED8902730136EE1EF06F0C8
:1010600012000A6E0A50D8B438EF08F03AEF08F0D0
:101070005CEF08F005BE41EF08F03FEF08F05CEFD1
:1010800008F002C006F003C007F004C008F005C075
:1010900009F0061E071E081E091E062A000E07225A
:1010A0000822092206C00CF007C00DF008C00EF09F
:1010B00009C00FF064EF08F002C00CF003C00DF09F
:1010C00004C00EF005C00FF002500310041005100C
:1010D000D8A46DEF08F06FEF08F079EF08F0000E7C
:1010E000026E000E036E000E046E000E056E0AEF17
:1010F00009F0960E0B6E83EF08F00B2AD8900F3292
:101100000E320D320C32000E0C14066E000E0D1451
:10111000076E000E0E14086EFE0E0F14096E0650B8
:10112000071008100910D8A498EF08F09AEF08F0FB
:101130007DEF08F0A8EF08F00B2A010E0C26000E38
:101140000D220E220F22D8900F320E320D320C32A9
:10115000000E0C14066E000E0D14076E000E0E1419
:10116000086EFF0E0F14096E0650071008100910C4
:10117000D8A4BDEF08F0BFEF08F09CEF08F0C7EF70
:1011800008F00B06D8900C360D360E360F360EBE14
:10119000CCEF08F0CEEF08F0D6EF08F0020E0B60AF
:1011A000D4EF08F0D6EF08F0C1EF08F00BB0DBEF9A
:1011B00008F0DDEF08F0DEEF08F00E9ED8900B325D
:1011C0000BC006F0076A086A096A06C009F0086AD7
:1011D000076A066A06500C1207500D1208500E12CC
:1011E00009500F120A50D8B4F8EF08F0FAEF08F0DF
:1011F00002EF09F005BE01EF09F0FFEF08F002EF82
:1012000009F00F8E0CC002F00DC003F00EC004F008
:101210000FC005F01200043405340B6E0B50D8A437
:1012200014EF09F016EF09F020EF09F0000E026E3E
:10123000000E036E000E046E000E056E8DEF09F0B9
:1012400002C006F003C007F004C008F005C009F0B2
:10125000200E30EF09F0D8900932083207320632FA
:10126000E82E2BEF09F006500A6E048EFF0E0216D0
:10127000FF0E0316FF0E0416000E0516960E0B5EEB
:101280000BBE47EF09F045EF09F05DEF09F00B5099
:10129000800A970FD8B04FEF09F051EF09F053EFE4
:1012A00009F016EF09F0D890053204320332023209
:1012B0000B3E53EF09F075EF09F01F0E0B6463EF5F
:1012C00009F065EF09F06DEF09F016EF09F0D8901D
:1012D00002360336043605360B060B50D8A473EFDE
:1012E00009F075EF09F067EF09F00A50D8B47BEF09
:1012F00009F07DEF09F085EF09F0051E041E031EBD
:10130000026C000E03220422052202C002F003C078
:1013100003F004C004F005C005F01200000E021432
:101320000A6E000E03140B6E800E04140C6E7F0EFA
:1013300005140D6E0A500B100C100D10D8A4A3EF5D
:1013400009F0A5EF09F0ADEF09F0000E026E000EF6
:10135000036E000E046E000E056E000E06140A6E7B
:10136000000E07140B6E800E08140C6E7F0E09140D
:101370000D6E0A500B100C100D10D8A4C2EF09F01E
:10138000C4EF09F0CCEF09F0000E066E000E076EF8
:10139000000E086E000E096E05AED1EF09F0D3EF16
:1013A00009F0DCEF09F0026C031ED8B0032A041E1A
:1013B000D8B0042A800E055609AEE1EF09F0E3EF3C
:1013C00009F0ECEF09F0066C071ED8B0072A081EDA
:1013D000D8B0082A800E0956000E021A000E031A11
:1013E000000E041A800E051A000E061A000E071AC7
:1013F000000E081A800E091A0650025C07500358A6
:101400000850045809500558D8B009EF0AF00BEFFE
:101410000AF00EEF0AF0D8900FEF0AF0D880120011
:10142000720ED36E000E936E949C95949586800EEA
:10143000CD6E9E90000ECF6E000ECE6E948E949C5C
:10144000AB8E250E3E6E800E3D6E3DC002F03EC05E
:1014500003F0000E03BEFF0E046E056E010E31ECAC
:1014600008F002C014F003C015F004C016F005C067
:1014700017F0000E106E240E116EF40E126E4A0E4E
:10148000136E64EC06F010C029F011C02AF012C0EF
:101490002BF013C02CF0000E2D6E000E2E6E800E61
:1014A0002F6EBF0E306E04EC04F029C039F02AC054
:1014B0003AF02BC03BF02CC03CF039C002F03AC0EF
:1014C00003F03BC004F03CC005F00BEC09F0025007
:1014D000AF6E200EAC6E900EAB6EF28EF28C9D8ACB
:1014E0009D98B890120009EC0BF083A67AEF0AF0F1
:1014F0007CEF0AF075EF0AF0CD8083A682EF0AF048
:1015000084EF0AF08BEF0AF09EA089EF0AF08BEFD0
:101510000AF07DEF0AF0CECF2DF0CFCF2EF0CD9098
:10152000000ECF6E000ECE6E9EA099EF0AF09BEFDC
:101530000AF0A6EF0AF0000E2F6EC00E306E790E84
:10154000316E440E326E9E90C9EF0AF02DC002F04B
:101550002EC003F0046A056A000E31EC08F002C0E8
:1015600010F003C011F004C012F005C013F0000E1B
:10157000146E000E156EEA0E166E420E176E64ECB7
:1015800006F010C02FF011C030F012C031F013C0BF
:1015900032F02FC029F030C02AF031C02BF032C019
:1015A0002CF0120006009EAAD8EF0AF0DAEF0AF03B
:1015B000E6EF0AF0ABA2DFEF0AF0E1EF0AF0E4EFAA
:1015C0000AF0AB9800F0AB88AECF43F09EA8EBEFEB
:1015D0000AF0EDEF0AF0F0EF0AF09E98F00EAD6E13
:1015E00044921100436A426A416A406A3F6A4490E9
:1015F0004492000EF86E080EF76E000100EF0BF03B
:1016000010EC0AF0F00E25EC0BF002EF0BF007EFF8
:1016100000F08384060EE82EFED700D083941200DB
:1016200081828190819481888196819A1200818241
:101630008180819481888186819A12008182819043
:10164000818481888196818A1200026E02C0ADFF7A
:02165000120086
:020000040020DA
:08000000FFFFFFFFFFFFFFFF00
:020000040030CA
:0E00000000091F1EFF0181FF0FC00FE00F401F
:00000001FF
